FHDR0630189000000521250PVERSION 16                                                                                                                                                                                                                        
SHDR000    8402A                                                                                                                                                                                                                                          
NREC030688210A0764062918231311166769380071954022   01000001502260110518180230150221950452106CC020025  61MS1                 5042000000000000D000000000000D00000000D840219490500000000000000D0000000025C               4NYY 000000200000            000000 
FPST030688210100001000051810054440190000000000000000000         190000000000000000000         BAM 050001             REGION DE MA   MARNNCC020025       000000000000978D2   000764                                                                        
FREC030764329A0724063018100002165325617907820946   01000014432260110518181101443221950452106CC010349  00MS1           0185555242000000200000C000000000000D00000000D840219490500000000021074C0000000156C               4NYY 000000200000            000000 
FPST030764329100001000051840632997090000000000031392415         190000000000000000000         BAM MARRAKECH BAB KHEM REGION DE MA   MARNNCC010349       000000021074840D2   000724                                                                        
FREC030766741A07640630181052461767030001321736051  0100001838076011051818110183807195045210611600007  00MS1           2263675242000000200000C000000000000D00000000D840219490500000000021074C0000000156C               4NYY 000000200000            000000 
FPST030766741100001000051810832468190000000000000000000         190000000000000000000         BAM AIT MELLOUL HAY AZ REGION D'AGA   MARNN11600007       000000018230978D2   000764                                                                        
NREC030767348A0764063018110458165612435754711619   0100001939326011051818111193932195045210601600718  55MS1                 5042000000000000D000000000000D00000000D840219490500000000000000D0000000025C               4NYY 000000200000            000000 
FPST030767348100001000051810126530190000000000000000000         190000000000000000000         BAM 050001             REGION DE CA   MARNN01600718       000000000000978D2   000764                                                                        
FREC030771195A07640630181205411767037506186386043  0100002478306011051818112247830195045210611600097  00MS1           4944305242000000100000C000000000000D00000000D840219490500000000010537C0000000093C               4NYY 000000100000            000000 
FPST030771195100001000051810832523190000000000000000000         190000000000000000000         BAM MOHAMEDIA GARE NCR REGION DE CA   MARNN11600097       000000009115978D2   000764                                                                        
FREC030841247A076406301817393919673703067504338700401000044145760110518181174414571950452106CC060243  00MS1           L4N4Z95242000000100000C000000000000D00000000D840219490500000000010537C0000000093C               4NYY 000000100000            000000 
FPST030841247100001000051810830538190000000000000000000         190000000000000000000         BAM MARRAKECH          REGION DE MA   MARNNCC060243       000000009115978D2   000764                                                                        
FREC030865002A0764063018190801165351440513389793   0100005047536011051818119504753195045210601600411  00MC1           7088255242000000050000C000000000000D00000000D840219490500000000005268C0000000062C               4NYY 000000050000            000000 
FPST030865002100001000051810014833190000000000000000000         190000000000000000000         BAM BERKANE ELWIDADIA  REGION D'OUJ   MARNN01600411       000000560561352D2   000764                                                                        
FREC031622829A0764062918215521165131621718910460   01000097618560110518180219761851950452106CC100014  00MC1           7596025242000000200000C000000000000D00000000D840219490500000000021074C0000000156C               4NYY 000000200000            000000 
FPST031622829100001000051810126530190000000000000000000         190000000000000000000         BAM 050001             REGION DE MA   MARNNCC100014       000000018230978D2   000764                                                                        
NREC031720483A0764063018095854165886020512782109   0100001435896011051818109143589195045210611600075  51MS1                 5042000000000000D000000000000D00000000D840219490500000000000000D0000000025C               4NYY 000000200000            000000 
FPST031720483100001000051810011153190000000000000000000         190000000000000000000         BAM EL JADIDA 1 NCR    REGION D'EL    MARNN11600075       000000000000978D2   000764                                                                        
FREC031723596A0764063018110555165573615014242060   01000019474860110518181111947481950452106CC060243  00MC1           3995605242000000100000C000000000000D00000000D840219490500000000010537C0000000093C               4NYY 000000100000            000000 
FPST031723596100001000051810121852190000000000000000000         190000000000000000000         BAM MARRAKECH          REGION DE MA   MARNNCC060243       000000008061826D2   000764                                                                        
FREC032511080A0764062918205446165342070013751333   0100009271366011051818020927136195045210601600721  00MC1           7697285242000000050000C000000000000D00000000D840219490500000000005268C0000000062C               4NYY 000000050000            000000 
FPST032511080100001000051810056383190000000000000000000         190000000000000000000         BAM 050001             REGION DE RA   MARNN01600721       000000004558978D2   000764                                                                        
FREC032563161A07640630180007511967340005119696943340100000257806011051818100025780195045210601600750  00MS1           B292815242000000200000C000000000000D00000000D840219490500000000021074C0000000156C               4NYY 000000200000            000000 
FPST032563161100001000051810832743190000000000000000000         190000000000000000000         BAM 050001             REGION DE MA   MARNN01600750       000000018230978D2   000764                                                                        
FREC032627332A076406301810411419672533901932787896101000017445160110518181101744511950452106CC060270  00MS1           1141155242000000020000C000000000000D00000000D840219490500000000002107C0000000043C               4NYY 000000020000            000000 
FPST032627332100001000051810002049190000000000000000000         190000000000000000000         BAM FES BETHA NCR      REGION DE FE   MARNNCC060270       000000001823978D2   000764                                                                        
FREC032628539A1562063018110556165326351019230351   0100001947366011051818111194736195045210601600728  00CI1           3179135242000000100000C000000000000D00000000D840219490500000000010537C0000000093C               4NYY 000000100000            000000 
FPST032628539100001000051000149615160000090881036394001         190000000000000000000         BAM 050001             REGION DE CA   MARNN01600728       000000063565952D0   001562                                                                        
NREC032629034A0139063018111501165368940000008732   0100002026456011051818111202645195045210601600718  51CI1                 5042000000000000D000000000000D00000000D840219490500000000000000D0000000025C               4NNX 000000100000            000000 
FPST032629034100001000051700017513190000000000000000000         190000000000000000000         BAM 050001             REGION DE CA   MARNN01600718       000000000000504D2   000139                                                                        
FREC032630356A0764063018113711165498583731695113   0100002223696011051818111222369195045210601600494  00MC1           2572315242000000200000C000000000000D00000000D840219490500000000021074C0000000156C               4NYY 000000200000            000000 
FPST032630356100001000051810121205190000000000000000000         190000000000000000000         BAM RABAT TOUR HASSAN4 REGION DE RA   MARNN01600494       000000018230978D2   000764                                                                        
FREC032645271A0139063018135058165578640112702125   0100003329796011051818113332979195045210601600535  00MC1           7343655242000000200000C000000000000D00000000D840219490500000000021074C0000000156C               4NYY 000000200000            000000 
FPST032645271100001000051700108943190000000000000000000         190000000000000000000         BAM FES  GAR           REGION DE FE   MARNN01600535       000000123426952D0   000139                                                                        
NREC032654391A0764063018143702165290970013012523   0100003591416011051818114359141195045210601600796  61MC1                 5042000000000000D000000000000D00000000D840219490500000000000000D0000000025C               4NYY 000000010000            000000 
FPST032654391100001000051810153914190000000000000000000         190000000000000000000         BAM 050001             REGION DE TA   MARNN01600796       000000000000978D2   000764                                                                        
NREC032678691A0764063018161427165333171036924328   0100004016186011051818116401618195045210611600152  51MC1                 5042000000000000D000000000000D00000000D840219490500000000000000D0000000025C               4NYY 000000010000            000000 
FPST032678691100001000051810090860190000000000000000000         190000000000000000000         BAM TARFAYA NCR-W7     REGION DE LA   MARNN11600152       000000000000978D2   000764                                                                        
FREC033547292A0509062918205846165262246020165123   0100009304806011051818020930480195045210611600238  00MS1           0001105242000000200000C000000000000D00000000D840219490500000000021074C0000000156C               4NYY 000000200000            000000 
FPST033547292100001000051254070116190000000000000000000         190000000000000000000         BAM MIR LEFT NCR       REGION D'AGA   MARNN11600238       000000021074840D2   000509                                                                        
FREC033609036A0764063018005422165131304794805967   01000003438160110518181000343811950452106CC060270  00MC1           3120115242000000030000C000000000000D00000000D840219490500000000003161C0000000049C               4NYY 000000030000            000000 
FPST033609036100001000051810126530190000000000000000000         190000000000000000000         BAM FES BETHA NCR      REGION DE FE   MARNNCC060270       000000002735978D2   000764                                                                        
FREC033640765A0764063018041848165132833012064428   01000005451560110518181040545151950452106CC060271  00MC1           3583395242000000100000C000000000000D00000000D840219490500000000010537C0000000093C               4NYY 000000100000            000000 
FPST033640765100001000051810102431190000000000000000000         190000000000000000000         BAM TERMINAL1 CASA NCR REGION DE CA   MARNNCC060271       000000009115978D2   000764                                                                        
NREC033660834A0724063018100351165325617907820946   01000014688960110518181101468891950452106CC010349  61MS1                 5042000000000000D000000000000D00000000D840219490500000000000000D0000000025C               4NYY 000000100000            000000 
FPST033660834100001000051840632997090000000000031392415         190000000000000000000         BAM MARRAKECH BAB KHEM REGION DE MA   MARNNCC010349       000000000000840D2   000724                                                                        
FREC033663762A015706301811063219588850233929033670801000019526360110518181111952631950452106CC060271  00CI1           1829605242000000100000C000000000000D00000000D840219490500000000010537C0000000093C               4NYY 000000100000            000000 
FPST033663762100001000051968215717190000000000000000000         190000000000000000000         BAM TERMINAL1 CASA NCR REGION DE CA   MARNNCC060271       000000039517682D2   000157                                                                        
FREC033674290A07640630181311121967254091015902554350100003060786011051818113306078195045210611600074  00MS1           1411135242000000200000C000000000000D00000000D840219490500000000021074C0000000156C               4NYY 000000200000            000000 
FPST033674290100001000051810002049190000000000000000000         190000000000000000000         BAM SIDI RAHAL NCR     REGION DE CA   MARNN11600074       000000018230978D2   000764                                                                        
NREC033738987A0764063018174415165300724179944229   0100004442566011051818117444256195045210611600177  51MC1                 5042000000000000D000000000000D00000000D840219490500000000000000D0000000025C               4NYY 000000040000            000000 
FPST033738987100001000051810142750190000000000000000000         190000000000000000000         BAM TIZNIT NCR  W7     REGION D'AGA   MARNN11600177       000000000000826D2   000764                                                                        
FREC033752113A0764063018183222165469540016152215   01000047805960110518181184780591950452106CC060243  00MC1           2616355242000000010000C000000000000D00000000D840219490500000000001054C0000000036C               4NYY 000000010000            000000 
FPST033752113100001000051810050376190000000000000000000         190000000000000000000         BAM MARRAKECH          REGION DE MA   MARNNCC060243       000000066303643D2   000764                                                                        
FREC034695189A0844062918203804164744722083759771   01000091241760110518180209124171950452106CC010349  00CI1           1431875242000000100000C000000000000D00000000D840219490500000000010537C0000000093C               4NYY 000000100000            000000 
FPST034695189100001000051840838018190000000000000000000         190000000000000000000         BAM MARRAKECH MEDINA N REGION DE MA   MARNNCC010349       000000010537840D2   000844                                                                        
NREC034720185A0764062918220843165305580286683281   0100009849616011051818022984961195045210601600690  51MC1                 5042000000000000D000000000000D00000000D840219490500000000000000D0000000025C               4NYY 000000020000            000000 
FPST034720185100001000051810133617190000000000000000000         190000000000000000000         BAM 050001             REGION DE MA   MARNN01600690       000000000000978D2   000764                                                                        
FREC034807028A0764063018072359165131623143081081   01000007890460110518181070789041950452106CC060271  00MC1           2254645242000000040000C000000000000D00000000D840219490500000000004215C0000000055C               4NYY 000000040000            000000 
FPST034807028100001000051810126530190000000000000000000         190000000000000000000         BAM TERMINAL1 CASA NCR REGION DE CA   MARNNCC060271       000000003646978D2   000764                                                                        
NREC034809356A0764063018081221165545053194295655   0100000927886011051818108092788195045210601600276  55MC1                 5042000000000000D000000000000D00000000D840219490500000000000000D0000000025C               4NYY 000000040000            000000 
FPST034809356100001000051810171598190000000000000000000         190000000000000000000         BAM BENI ANZAR         REGION D'OUJ   MARNN01600276       000000000000978D2   000764                                                                        
FREC034822583A0764063018122431165468110012920576   01000026658360110518181122665831950452106CC010349  00MC1           0298585242000000100000C000000000000D00000000D840219490500000000010537C0000000093C               4NYY 000000100000            000000 
FPST034822583100001000051810060667190000000000000000000         190000000000000000000         BAM MARRAKECH MEDINA N REGION DE MA   MARNNCC010349       000000008061826D2   000764                                                                        
FREC034827643A0764063018131040165355861908623643   0100003056486011051818113305648195045210601600384  00MC1           NU2AIS5242000000200000C000000000000D00000000D840219490500000000021074C0000000156C               4NYY 000000200000            000000 
FPST034827643100001000051810178805160005355861908623643         190000000000000000000         BAM TIT MELLIL         REGION DE CA   MARNN01600384       000000018230978D2   000764                                                                        
NREC035535765A0764062918214638165573605006339750   01000096984460110518180219698441950452106A3025551  55MC1                 5042000000000000D000000000000D00000000D840219490500000000000000D0000000025C               4NYY 000000200000            000000 
FPST035535765100001000051810121852190000000000000000000         190000000000000000000         BAM MARRACKECH PRINCIP REGION DE MA   MARNNA3025551       000000000000826D2   000764                                                                        
FREC035576324A0764063018001924165333171056201201   0100000285056011051818100028505195045210601600796  00MC1           6566805242000000200000C000000000000D00000000D840219490500000000021074C0000000156C               4NYY 000000200000            000000 
FPST035576324100001000051810090860190000000000000000000         190000000000000000000         BAM 050001             REGION DE TA   MARNN01600796       000000018230978D2   000764                                                                        
FREC035625666A0764063018062658165136403003497080   0100000675256011051818106067525195045210601600900  00MC1           8110115242000000010000C000000000000D00000000D840219490500000000001054C0000000036C               4NYY 000000010000            000000 
FPST035625666100001000051810102431190000000000000000000         190000000000000000000         BAM 050001             REGION DE RA   MARNN01600900       000000000912978D2   000764                                                                        
FREC035630644A0764063018080217165181760010356037   0100000895316011051818108089531195045210601600721  00MC1           0218535242000000100000C000000000000D00000000D840219490500000000010537C0000000093C               4NYY 000000100000            000000 
FPST035630644100001000051810013119190000000000000000000         190000000000000000000         BAM 050001             REGION DE RA   MARNN01600721       000000009115978D2   000764                                                                        
FREC035637758A07640630181041501967370306563159110020100001749456011051818110174945195045210601600588  00MS1           I3J1X95242000000100000C000000000000D00000000D840219490500000000010537C0000000093C               4NYY 000000100000            000000 
FPST035637758100001000051810830538190000000000000000000         190000000000000000000         BAM SETTAT PAL2        REGION D'EL    MARNN01600588       000000009115978D2   000764                                                                        
FREC035637764A07640630181041591967221706062842690090100001750446011051818110175044195045210601600585  00MS1           4771975242000000050000C000000000000D00000000D840219490500000000005268C0000000062C               4NYY 000000050000            000000 
FPST035637764100001000051810834466190000000000000000000         190000000000000000000         BAM MLY YAAKOUB        REGION DE FE   MARNN01600585       000000004558978D2   000764                                                                        
NREC035639039A1562063018110751165326351019230351   0100001963516011051818111196351195045210601600728  51CI1           2231005042000000000000D000000000000D00000000D840219490500000000000000D0000000025C               4NYY 000000030000            000000 
FPST035639039100001000051000149615160000090881036394001         190000000000000000000         BAM 050001             REGION DE CA   MARNN01600728       000000000000952D0   001562                                                                        
NREC035641456A0139063018114752165370031000012654   0100002317466011051818111231746195045210601600728  14MC1                 5042000000000000D000000000000D00000000D840219490500000000000000D0000000025C               4NNX 000000100000            000000 
FPST035641456100001000051700017555190000000000000000000         190000000000000000000         BAM 050001             REGION DE CA   MARNN01600728       000000000000840D2   000139                                                                        
NREC035642287A0780063018115945164873092665947100   01000024237960110518181112423791950452106CC060271  12VI1                 5042000000000000D000000000000D00000000D840219490500000000000000D0000000000D               4NNX 000000050000            000000 
FPST035642287100001000051840133218190000000000000000000         190000000000000000000         BAM TERMINAL1 CASA NCR REGION DE CA   MARNNCC060271       000000000000840D2   000780                                                                        
FREC035643392A1096063018121340165456526281880528   01000025629860110518181122562981950452106A5001073  00CI1           1993395242000000030000C000000000000D00000000D840219490500000000003161C0000000049C               4NYY 000000030000            000000 
FPST035643392100001000051900176704090000000000070689291         190000000000000000000         BAM MERZOUGA NCR-W7    REGION DE ME   MARNNA5001073       000000092007032D2   001096                                                                        
FREC035653415A0509063018133746165574030219556141   01000032492460110518181133249241950452106CC020035  00CI1           6609325242000000100000C000000000000D00000000D840219490500000000010537C0000000093C               4NYY 000000100000            000000 
FPST035653415100001000051810171488190000000000000000000         190000000000000000000         BAM MARRAKECH MEDINNA  REGION DE MA   MARNNCC020035       000000008061826D2   000509                                                                        
FREC035653548A0764063018133834165391232183217376   01000032542460110518181133254241950452106CC060243  00MC1           1068365242000000100000C000000000000D00000000D840219490500000000010537C0000000093C               4NYY 000000100000            000000 
FPST035653548100001000051810190715190000000000000000000         190000000000000000000         BAM MARRAKECH          REGION DE MA   MARNNCC060243       000000008061826D2   000764                                                                        
FREC035700615A0764063018165629165300398589364516   01000041811360110518181164181131950452106CC010115  00MC1           7126195242000000200000C000000000000D00000000D840219490500000000021074C0000000156C               4NYY 000000200000            000000 
FPST035700615100001000051810142750190000000000000000000         190000000000000000000         BAM AGADIR FOUNTY      REGION D'AGA   MARNNCC010115       000000016121826D2   000764                                                                        
FREC036536662A0764062918200555165132830854903457   01000088276760110518180208827671950452106CC010115  00MC1           1715765242000000100000C000000000000D00000000D840219490500000000010537C0000000093C               4NYY 000000100000            000000 
FPST036536662100001000051810102431190000000000000000000         190000000000000000000         BAM AGADIR FOUNTY      REGION D'AGA   MARNNCC010115       000000009115978D2   000764                                                                        
FREC036550131A015706291820564019588850132639036137201000092873360110518180209287331950452106CC060271  00CI1           5742705242000000200000C000000000000D00000000D840219490500000000021074C0000000156C               4NYY 000000200000            000000 
FPST036550131100001000051968215717190000000000000000000         190000000000000000000         BAM TERMINAL1 CASA NCR REGION DE CA   MARNNCC060271       000000079035682D2   000157                                                                        
NREC036551743A076406291821023819673336012065350800201000093331960110518180219333191950452106CC010349  61MS1                 5042000000000000D000000000000D00000000D840219490500000000000000D0000000025C               4NYY 000000100000            000000 
FPST036551743100001000051810831731190000000000000000000         190000000000000000000         BAM MARRAKECH MEDINA N REGION DE MA   MARNNCC010349       000000000000978D2   000764                                                                        
NREC036566888A0764062918215708165333171053320772   0100009773766011051818021977376195045210601600584  75MC1                 5042000000000000D000000000000D00000000D840219490500000000000000D0000000025C               4NYY 000000100000            000000 
FPST036566888100001000051810090860190000000000000000000         190000000000000000000         BAM FES JDID           REGION DE FE   MARNN01600584       000000000000978D2   000764                                                                        
NREC036683934A076406301813512719671076700051055500701000033323060110518181133332301950452106CC020035  51MS1                 5042000000000000D000000000000D00000000D840219490500000000000000D0000000025C               4NYY 000000100000            000000 
FPST036683934100001000051810003077190000000000000000000         190000000000000000000         BAM MARRAKECH MEDINNA  REGION DE MA   MARNNCC020035       000000000000756D2   000764                                                                        
NREC036707168A1359063018153620165331232689970026   01000038578060110518181153857801950452106CC060271  55CI1                 5042000000000000D000000000000D00000000D840219490500000000000000D0000000025C               4NYY 000000100000            000000 
FPST036707168100001000051963413598190000000000000000000         190000000000000000000         BAM TERMINAL1 CASA NCR REGION DE CA   MARNNCC060271       000000000000840D2   001359                                                                        
NREC036718304A07640630181618111967107650007264067160100004030616011051818116403061195045210601600531  55MS1                 5042000000000000D000000000000D00000000D840219490500000000000000D0000000025C               4NYY 000000100000            000000 
FPST036718304100001000051810003077190000000000000000000         190000000000000000000         BAM AOURIR             REGION D'AGA   MARNN01600531       000000000000756D2   000764                                                                        
FREC036740241A0764063018173647165489018516385102   01000043974560110518181174397451950452106CC010349  00MC1           6085555242000000100000C000000000000D00000000D840219490500000000010537C0000000093C               4NYY 000000100000            000000 
FPST036740241100001000051810015418190000000000000000000         190000000000000000000         BAM MARRAKECH MEDINA N REGION DE MA   MARNNCC010349       000000009115978D2   000764                                                                        
FREC037521589A07640629182000311967102160001600025050100008777916011051818020877791195045210601600254  00MS1           MXC2KD5242000000200000C000000000000D00000000D840219528962000000020989C0000000156C               4NYY 000000200000            000000 
FPST037521589100001000051810003077190000000000000000000         190000000000000000000         BAM TINERHIR           REGION DE ME   MARNN01600254       000000020971756D2   000764                                                                        
FREC037529259A07640629182029541767030416065435837  01000090502560110518180209050251950452106A3025551  00MS1           5101075242000000100000C000000000000D00000000D840219490500000000010537C0000000093C               4NYY 000000100000            000000 
FPST037529259100001000051810832183190000000000000000000         190000000000000000000         BAM MARRACKECH PRINCIP REGION DE MA   MARNNA3025551       000000009115978D2   000764                                                                        
FREC037532742A0847062918204253164815820155645938   01000091669860110518180209166981950452106CC020035  00CI1           1649285242000000040000C000000000000D00000000D840219490500000000004215C0000000055C               4NYY 000000040000            000000 
FPST037532742100001000051840838018190000000000000000000         190000000000000000000         BAM MARRAKECH MEDINNA  REGION DE MA   MARNNCC020035       000000004215840D2   000847                                                                        
NREC037578528A0139062918232956165370031000065439   0100000203336011051818023020333195045210601600677  14MC1                 5042000000000000D000000000000D00000000D840219490500000000000000D0000000025C               4NNX 000000020000            000000 
FPST037578528100001000051700017555190000000000000000000         190000000000000000000         BAM OUED ZEM ALWAHDA   REGION D'EL    MARNN01600677       000000000000840D2   000139                                                                        
FREC037655707A0764063018114436165131658746288279   01000022891160110518181112289111950452106CC010349  00MC1           2150425242000000100000C000000000000D00000000D840219490500000000010537C0000000093C               4NYY 000000100000            000000 
FPST037655707100001000051810126530190000000000000000000         190000000000000000000         BAM MARRAKECH MEDINA N REGION DE MA   MARNNCC010349       000000009115978D2   000764                                                                        
NREC037656012A0764063018114907165886020512399623   0100002327916011051818111232791195045210611600125  51MS1                 5042000000000000D000000000000D00000000D840219490500000000000000D0000000025C               4NYY 000000200000            000000 
FPST037656012100001000051810011153190000000000000000000         190000000000000000000         BAM LAFKIH BEN SALAH N REGION D'EL    MARNN11600125       000000000000978D2   000764                                                                        
FREC037663564A0764063018130810166761631026548808   01000030375860110518181133037581950452106CC060270  00MS1           2544185242000000100000C000000000000D00000000D840219490500000000010537C0000000093C               4NYY 000000100000            000000 
FPST037663564100001000051810038738160008381009840538194         190000000000000000000         BAM FES BETHA NCR      REGION DE FE   MARNNCC060270       000000095217752D2   000764                                                                        
FREC037663776A07640630181309441967333603801702800020100003049576011051818113304957195045210601600365  00MS1           0070665242000000200000C000000000000D00000000D840219490500000000021074C0000000156C               4NYY 000000200000            000000 
FPST037663776100001000051810831731190000000000000000000         190000000000000000000         BAM IMZOUREN           REGION D'OUJ   MARNN01600365       000000018230978D2   000764                                                                        
FREC037669064A0764063018134443165137731318384349   0100003292846011051818113329284195045210601600214  00MC1           8426945242000000100000C000000000000D00000000D840219490500000000010537C0000000093C               4NYY 000000100000            000000 
FPST037669064100001000051810126530190000000000000000000         190000000000000000000         BAM TAFRAOUT           REGION D'AGA   MARNN01600214       000000009115978D2   000764                                                                        
FREC037670483A076406301813525219671076700051162031301000033403360110518181133340331950452106CC020035  00MS1           OJDDY15242000000100000C000000000000D00000000D840219490500000000010537C0000000093C               4NYY 000000100000            000000 
FPST037670483100001000051810003077190000000000000000000         190000000000000000000         BAM MARRAKECH MEDINNA  REGION DE MA   MARNNCC020035       000000010515756D2   000764                                                                        
FREC037670547A0764063018135315165355220149935474   01000033424560110518181133342451950452106CC010349  00MC1           AHEUAI5242000000050000C000000000000D00000000D840219490500000000005268C0000000062C               4NYY 000000050000            000000 
FPST037670547100001000051810177042190000000000000000000         190000000000000000000         BAM MARRAKECH MEDINA N REGION DE MA   MARNNCC010349       000000004030826D2   000764                                                                        
FREC037677820A0844063018143022164744760174246209   01000035566160110518181143556611950452106CC010387  00CI1           1636015242000000100000C000000000000D00000000D840219490500000000010537C0000000093C               4NYY 000000100000            000000 
FPST037677820100001000051840838018190000000000000000000         190000000000000000000         BAM FES ELKARAOUINE    REGION DE FE   MARNNCC010387       000000010537840D2   000844                                                                        
FREC037693396A0764063018153607165169310003945788   01000038570160110518181153857011950452106CC060270  00MC1           7293795242000000030000C000000000000D00000000D840219490500000000003161C0000000049C               4NYY 000000030000            000000 
FPST037693396100001000051810151314190000000000000000000         190000000000000000000         BAM FES BETHA NCR      REGION DE FE   MARNNCC060270       000000011931985D2   000764                                                                        
FREC037703159A0764063018161301165333171036924328   0100004009986011051818116400998195045210611600152  00MC1           6525115242000000100000C000000000000D00000000D840219490500000000010537C0000000093C               4NYY 000000100000            000000 
FPST037703159100001000051810090860190000000000000000000         190000000000000000000         BAM TARFAYA NCR-W7     REGION DE LA   MARNN11600152       000000009115978D2   000764                                                                        
NREC037713739A0764063018165146165398532017165383   01000041607360110518181164160731950452106CC060243  55MC1                 5042000000000000D000000000000D00000000D840219490500000000000000D0000000025C               4NYY 000000050000            000000 
FPST037713739100001000051810171608190000000000000000000         190000000000000000000         BAM MARRAKECH          REGION DE MA   MARNNCC060243       000000000000978D2   000764                                                                        
NREC037741587A0764063018183149165213243805623962   01000047766160110518181184776611950452106CC060243  75MC1                 5042000000000000D000000000000D00000000D840219490500000000000000D0000000025C               4NYY 000000010000            000000 
FPST037741587100001000051810104552190000000000000000000         190000000000000000000         BAM MARRAKECH          REGION DE MA   MARNNCC060243       000000000000643D2   000764                                                                        
FREC037759310A015706301819411319588850132359030378301000052811660110518181195281161950452106CC060271  00CI1           5439125242000000100000C000000000000D00000000D840219490500000000010537C0000000093C               4NYY 000000100000            000000 
FPST037759310100001000051968215717190000000000000000000         190000000000000000000         BAM TERMINAL1 CASA NCR REGION DE CA   MARNNCC060271       000000039517682D2   000157                                                                        
NREC039580498A0844062918201435164326262011933079   0100008909916011051818020890991195045210601600494  55CI1                 5042000000000000D000000000000D00000000D840219490500000000000000D0000000025C               4NYY 000000050000            000000 
FPST039580498100001000051840838018190000000000000000000         190000000000000000000         BAM RABAT TOUR HASSAN4 REGION DE RA   MARNN01600494       000000000000840D2   000844                                                                        
FREC039705517A0844063018095542164744721026294250   0100001414776011051818109141477195045210601600584  00CI1           1457575242000000200000C000000000000D00000000D840219490500000000021074C0000000156C               4NYY 000000200000            000000 
FPST039705517100001000051840838018190000000000000000000         190000000000000000000         BAM FES JDID           REGION DE FE   MARNN01600584       000000021074840D2   000844                                                                        
FREC039707025A0910063018102940165163610064372194   01000016541760110518181101654171950452106CC020025  00CI1           2554425242000000100000C000000000000D00000000D840219490500000000010537C0000000093C               4NYY 000000100000            000000 
FPST039707025100001000051991015298190000000000000000000         190000000000000000000         BAM 050001             REGION DE MA   MARNNCC020025       000000014360036D2   000910                                                                        
NREC039707514A076406301810401319673703000549940601901000017358660110518181101735861950452106CC010349  57MS1                 5042000000000000D000000000000D00000000D840219490500000000000000D0000000025C               4NYY 000000100000            000000 
FPST039707514100001000051810830538190000000000000000000         190000000000000000000         BAM MARRAKECH MEDINA N REGION DE MA   MARNNCC010349       000000000000978D2   000764                                                                        
FREC039707720A0133063018104434165126849505008357   01000017714760110518181101771471950452106CC010349  00CI1           4292215242000000020000C000000000000D00000000D840219490500000000002107C0000000043C               4NYY 000000020000            000000 
FPST039707720100001000051700046636190000000000000000000         190000000000000000000         BAM MARRAKECH MEDINA N REGION DE MA   MARNNCC010349       000001195257188D2   000133                                                                        
FREC039708226A07640630181055031767030001321736051  0100001857046011051818110185704195045210611600007  00MS1           2352035242000000050000C000000000000D00000000D840219490500000000005268C0000000062C               4NYY 000000050000            000000 
FPST039708226100001000051810832468190000000000000000000         190000000000000000000         BAM AIT MELLOUL HAY AZ REGION D'AGA   MARNN11600007       000000004558978D2   000764                                                                        
FREC039708363A1972063018105748165147593036250550   01000018798160110518181101879811950452106CC010349  00MS1           0488865242000000100000C000000000000D00000000D840219490500000000010537C0000000093C               4NYY 000000100000            000000 
FPST039708363100001000051840197209110000000005629802535         190000000000000000000         BAM MARRAKECH MEDINA N REGION DE MA   MARNNCC010349       000000010537840D2   001972                                                                        
NREC039712866A0139063018120917165370031000012654   0100002511696011051818112251169195045210601600728  14MC1                 5042000000000000D000000000000D00000000D840219490500000000000000D0000000025C               4NNX 000000010000            000000 
FPST039712866100001000051700017555190000000000000000000         190000000000000000000         BAM 050001             REGION DE CA   MARNN01600728       000000000000840D2   000139                                                                        
FREC039722345A0764063018133204165137420063817063   01000032102760110518181133210271950452106CC010349  00MC1           3643145242000000050000C000000000000D00000000D840219490500000000005268C0000000062C               4NYY 000000050000            000000 
FPST039722345100001000051810102431190000000000000000000         190000000000000000000         BAM MARRAKECH MEDINA N REGION DE MA   MARNNCC010349       000000004558978D2   000764                                                                        
FREC130592357A0764062918221720165333171044760755   0100009900636011051818022990063195045210601600378  00MC1           6583905242000000100000C000000000000D00000000D840219490500000000010537C0000000093C               4NYY 000000100000            000000 
FPST130592357100001000051810090860190000000000000000000         190000000000000000000         BAM TAMLELET           REGION DE MA   MARNN01600378       000000009115978D2   000764                                                                        
FREC130660622A07640630180347061767030003181961001  0100000518036011051818103051803195045210601600422  00MS1           6460355242000000010000C000000000000D00000000D840219490500000000001054C0000000036C               4NYY 000000010000            000000 
FPST130660622100001000051810832468190000000000000000000         190000000000000000000         BAM OUJDA ENNAHDA      REGION D'OUJ   MARNN01600422       000000000912978D2   000764                                                                        
FREC130686223A07640630181052271967735552597995799550100001835486011051818110183548195045210611600238  00MS1           2743855242000000200000C000000000000D00000000D840219490500000000021074C0000000156C               4NYY 000000200000            000000 
FPST130686223100001000051810002515190000000000000000000         190000000000000000000         BAM MIR LEFT NCR       REGION D'AGA   MARNN11600238       000000018230978D2   000764                                                                        
FREC130688247A0764063018112956165253030011477130   01000021588060110518181112158801950452106CC060270  00MC1           Z437755242000000050000C000000000000D00000000D840219490500000000005268C0000000062C               4NYY 000000050000            000000 
FPST130688247100001000051810120992190000000000000000000         190000000000000000000         BAM FES BETHA NCR      REGION DE FE   MARNNCC060270       000000004030826D2   000764                                                                        
FREC130700743A07640630181333481967254043000465646800100003222776011051818113322277195045210611600170  00MS1           1433495242000000200000C000000000000D00000000D840219490500000000021074C0000000156C               4NYY 000000200000            000000 
FPST130700743100001000051810002049190000000000000000000         190000000000000000000         BAM TANGER BEN DIBAN N REGION DE TA   MARNN11600170       000000018230978D2   000764                                                                        
FREC130715867A0509063018145041165204165358405193   01000036604460110518181143660441950452106CC020035  00CI1           0001435242000000200000C000000000000D00000000D840219490500000000021074C0000000156C               4NYY 000000200000            000000 
FPST130715867100001000051840292256190000000000000000000         190000000000000000000         BAM MARRAKECH MEDINNA  REGION DE MA   MARNNCC020035       000000418593484D2   000509                                                                        
FREC130723645A0053063018152307164306798003988526   01000038034860110518181153803481950452106CC020025  00CI1           0305685242000000010000C000000000000D00000000D840219490500000000001054C0000000036C               4NYY 000000010000            000000 
FPST130723645100001000051700010099190000000000000000000         190000000000000000000         BAM 050001             REGION DE MA   MARNNCC020025       000000001054840D2   000053                                                                        
NREC130724632A0764063018152706165506145213281257   01000038193160110518181153819311950452106CC060243  55MC1                 5042000000000000D000000000000D00000000D840219490500000000000000D0000000025C               4NYY 000000050000            000000 
FPST130724632100001000051810100873190000000000000000000         190000000000000000000         BAM MARRAKECH          REGION DE MA   MARNNCC060243       000000000000826D2   000764                                                                        
NREC130749326A07640630181659041767033400616211084  01000041935960110518181164193591950452106CC060271  57MS1                 5042000000000000D000000000000D00000000D840219490500000000000000D0000000025C               4NYY 000000100000            000000 
FPST130749326100001000051810832549190000000000000000000         190000000000000000000         BAM TERMINAL1 CASA NCR REGION DE CA   MARNNCC060271       000000000000978D2   000764                                                                        
NREC130777068A0764063018183920165137754510241521   0100004832586011051818118483258195045210611600257  75MC1                 5042000000000000D000000000000D00000000D840219490500000000000000D0000000025C               4NYY 000000100000            000000 
FPST130777068100001000051810126530190000000000000000000         190000000000000000000         BAM ERRACHIDIA ALNIF N REGION DE ME   MARNN11600257       000000000000978D2   000764                                                                        
FREC131098166A0133063018104518165126849505008357   01000017773160110518181101777311950452106CC010349  00CI1           1276655242000000020000C000000000000D00000000D840219490500000000002107C0000000043C               4NYY 000000020000            000000 
FPST131098166100001000051700046636190000000000000000000         190000000000000000000         BAM MARRAKECH MEDINA N REGION DE MA   MARNNCC010349       000001195257188D2   000133                                                                        
FREC131100460A07640630181128421767034200490869018  01000021472160110518181112147211950452106CC010349  00MS1           3647395242000000200000C000000000000D00000000D840219490500000000021074C0000000156C               4NYY 000000200000            000000 
FPST131100460100001000051810831786190000000000000000000         190000000000000000000         BAM MARRAKECH MEDINA N REGION DE MA   MARNNCC010349       000000018230978D2   000764                                                                        
FREC131100897A1737063018113549165175548237797515   0100002211636011051818111221163195045210601600591  00CI1           5047635242000000200000C000000000000D00000000D840219490500000000021074C0000000156C               4NYY 000000200000            000000 
FPST131100897100001000051978417372190000000000000000000         190000000000000000000         BAM IFRANE             REGION DE ME   MARNN01600591       000000077414784D2   001737                                                                        
FREC131103168A0764063018120756165455938000898627   01000024993560110518181122499351950452106CC060270  00MC1           8432575242000000020000C000000000000D00000000D840219490500000000002107C0000000043C               4NYY 000000020000            000000 
FPST131103168100001000051810074666190000000000000000000         190000000000000000000         BAM FES BETHA NCR      REGION DE FE   MARNNCC060270       000000008464946D2   000764                                                                        
FREC131103370A0764063018121022165333171002210041   0100002521716011051818112252171195045210601600305  00MC1           6554235242000000050000C000000000000D00000000D840219490500000000005268C0000000062C               4NYY 000000050000            000000 
FPST131103370100001000051810090860190000000000000000000         190000000000000000000         BAM FKIH BEN SALEH GAR REGION D'EL    MARNN01600305       000000004558978D2   000764                                                                        
FREC131109329A0764063018130809165573683000619469   01000030375360110518181133037531950452106CC060243  00MC1           9009575242000000030000C000000000000D00000000D840219490500000000003161C0000000049C               4NYY 000000030000            000000 
FPST131109329100001000051810131774190000000000000000000         190000000000000000000         BAM MARRAKECH          REGION DE MA   MARNNCC060243       000000002735978D2   000764                                                                        
NREC132579192A076406291820134719673703000080236400501000089023160110518180208902311950452106CC020035  57MS1                 5042000000000000D000000000000D00000000D840219490500000000000000D0000000025C               4NYY 000000200000            000000 
FPST132579192100001000051810830538190000000000000000000         190000000000000000000         BAM MARRAKECH MEDINNA  REGION DE MA   MARNNCC020035       000000000000978D2   000764                                                                        
FREC132598135A0764062918212356165106580118517799   0100009519276011051818021951927195045210601600493  00MC1           7058105242000000040000C000000000000D00000000D840219490500000000004215C0000000055C               4NYY 000000040000            000000 
FPST132598135100001000051810187126190000000000000000000         190000000000000000000         BAM SAIDIA MARINA      REGION D'OUJ   MARNN01600493       000000094303203D2   000764                                                                        
FREC132703388A00510630180934571950023599515521516660100001291046011051818109129104195045210601600338  00MS1           0006285242000000200000C000000000000D00000000D840219490500000000021074C0000000156C               4NYY 000000200000            000000 
FPST132703388100001000051124122013170010841000005171001         190000000000000000000         BAM SALE SIDI MOUSSA   REGION DE RA   MARNN01600338       000000021074840D2   000051                                                                        
FREC132704529A0724063018100130165325617907820946   01000014524760110518181101452471950452106CC010349  00MS1           0185985242000000200000C000000000000D00000000D840219490500000000021074C0000000156C               4NYY 000000200000            000000 
FPST132704529100001000051840632997090000000000031392415         190000000000000000000         BAM MARRAKECH BAB KHEM REGION DE MA   MARNNCC010349       000000021074840D2   000724                                                                        
FREC132704973A0764063018101136165434092400030054   01000015224960110518181101522491950452106A5001073  00MC1           8174405242000000200000C000000000000D00000000D840219490500000000021074C0000000156C               4NYY 000000200000            000000 
FPST132704973100001000051810056383190000000000000000000         190000000000000000000         BAM MERZOUGA NCR-W7    REGION DE ME   MARNNA5001073       000000018230978D2   000764                                                                        
NREC132708459A0764063018112241165290970013012523   0100002094816011051818111209481195045210601600796  61MC1                 5042000000000000D000000000000D00000000D840219490500000000000000D0000000025C               4NYY 000000020000            000000 
FPST132708459100001000051810153914190000000000000000000         190000000000000000000         BAM 050001             REGION DE TA   MARNN01600796       000000000000978D2   000764                                                                        
FREC132727874A076406301814104019672666140001750003001000034412560110518181143441251950452106CC020025  00MS1           6078895242000000200000C000000000000D00000000D840219490500000000021074C0000000156C               4NYY 000000200000            000000 
FPST132727874100001000051810002971190000000000000000000         190000000000000000000         BAM 050001             REGION DE MA   MARNNCC020025       000000018230978D2   000764                                                                        
FREC132739722A07640630181504381767030511471009000  01000037251460110518181153725141950452106CC010349  00MS1           1221685242000000200000C000000000000D00000000D840219490500000000021074C0000000156C               4NYY 000000200000            000000 
FPST132739722100001000051810832882190000000000000000000         190000000000000000000         BAM MARRAKECH MEDINA N REGION DE MA   MARNNCC010349       000000018230978D2   000764                                                                        
FREC132746206A07640630181531001967068400000488842900100003835286011051818115383528195045210601600096  00MS1           4933155242000000200000C000000000000D00000000D840219490500000000021074C0000000156C               4NYY 000000200000            000000 
FPST132746206100001000051810810574190000000000000000000         190000000000000000000         BAM OUARZAZATE         REGION DE MA   MARNN01600090       000000018230978D2   000764                                                                        
FREC132754763A0764063018160348165130231776412416   0100003972676011051818116397267195045210601600431  00MC1           5495425242000000050000C000000000000D00000000D840219490500000000005268C0000000062C               4NYY 000000050000            000000 
FPST132754763100001000051810121205190000000000000000000         190000000000000000000         BAM RABAT MEDINA       REGION DE RA   MARNN01600431       000000004558978D2   000764                                                                        
NREC133757280A0764063018102507165539620010768053   0100001620206011051818110162020195045210601600770  05MC1                 5042000000000000D000000000000D00000000D840219490500000000000000D0000000025C               4NYY 000000200000            000000 
FPST133757280100001000051810066250190000000000000000000         190000000000000000000         BAM 050001             REGION D'EL    MARNN01600770       000000000000978D2   000764                                                                        
FREC133758600A07640630181053221967735552597995799550100001843076011051818110184307195045210611600238  00MS1           3677435242000000200000C000000000000D00000000D840219490500000000021074C0000000156C               4NYY 000000200000            000000 
FPST133758600100001000051810002515190000000000000000000         190000000000000000000         BAM MIR LEFT NCR       REGION D'AGA   MARNN11600238       000000018230978D2   000764                                                                        
NREC133767796A0929063018125509165384220006569064   01000029352760110518181122935271950452106CC020035  51CI1                 5042000000000000D000000000000D00000000D840219490500000000000000D0000000025C               4NYY 000000050000            000000 
FPST133767796100001000051000150154190000000600224626470         190000000000000000000         BAM MARRAKECH MEDINNA  REGION DE MA   MARNNCC020035       000000000000840D2   000929                                                                        
FREC133798035A0764063018153120165351202263720019   0100003837026011051818115383702195045210601600588  00MC1           8204335242000000100000C000000000000D00000000D840219490500000000010537C0000000093C               4NYY 000000100000            000000 
FPST133798035100001000051810156364190000000000000000000         190000000000000000000         BAM SETTAT PAL2        REGION D'EL    MARNN01600588       000000009115978D2   000764                                                                        
FREC133804017A0764063018155424165131627251341419   0100003930996011051818115393099195045210601600495  00MC1           4456435242000000050000C000000000000D00000000D840219490500000000005268C0000000062C               4NYY 000000050000            000000 
FPST133804017100001000051810126530190000000000000000000         190000000000000000000         BAM RABAT TOUR HASSAN5 REGION DE RA   MARNN01600495       000000004558978D2   000764                                                                        
FREC133807907A0764063018160848165132830837237148   0100003993416011051818116399341195045210601600623  00MC1           7372325242000000200000C000000000000D00000000D840219490500000000021074C0000000156C               4NYY 000000200000            000000 
FPST133807907100001000051810102431190000000000000000000         190000000000000000000         BAM ZRARDA             REGION DE FE   MARNN01600623       000000018230978D2   000764                                                                        
NREC134735155A0764062918214311165290970013846623   01000096720360110518180219672031950452106CC010387  55MC1                 5042000000000000D000000000000D00000000D840219490500000000000000D0000000025C               4NYY 000000100000            000000 
FPST134735155100001000051810153914190000000000000000000         190000000000000000000         BAM FES ELKARAOUINE    REGION DE FE   MARNNCC010387       000000000000978D2   000764                                                                        
NREC134828568A0764063018071236165545059172197235   01000007618660110518181070761861950452106CC060271  55MC1                 5042000000000000D000000000000D00000000D840219490500000000000000D0000000025C               4NYY 000000200000            000000 
FPST134828568100001000051810171598190000000000000000000         190000000000000000000         BAM TERMINAL1 CASA NCR REGION DE CA   MARNNCC060271       000000000000978D2   000764                                                                        
FREC134843539A0764063018121102165391232174029780   01000025278760110518181122527871950452106CC010349  00MC1           1089025242000000020000C000000000000D00000000D840219490500000000002107C0000000043C               4NYY 000000020000            000000 
FPST134843539100001000051810190715190000000000000000000         190000000000000000000         BAM MARRAKECH MEDINA N REGION DE MA   MARNNCC010349       000000001612826D2   000764                                                                        
FREC134843817A1096063018121418165456526281880528   01000025692260110518181122569221950452106A5001073  00CI1           1994445242000000040000C000000000000D00000000D840219490500000000004215C0000000055C               4NYY 000000040000            000000 
FPST134843817100001000051900176704090000000000070689291         190000000000000000000         BAM MERZOUGA NCR-W7    REGION DE ME   MARNNA5001073       000000122676032D2   001096                                                                        
NREC134897798A0764063018164442165333171053320772   01000041327860110518181164132781950452106CC060270  75MC1                 5042000000000000D000000000000D00000000D840219490500000000000000D0000000025C               4NYY 000000050000            000000 
FPST134897798100001000051810090860190000000000000000000         190000000000000000000         BAM FES BETHA NCR      REGION DE FE   MARNNCC060270       000000000000978D2   000764                                                                        
NREC134925612A076406301818243319673336036625950400801000047224260110518181184722421950452106CC100014  57MS1                 5042000000000000D000000000000D00000000D840219490500000000000000D0000000025C               4NYY 000000200000            000000 
FPST134925612100001000051810831731190000000000000000000         190000000000000000000         BAM 050001             REGION DE MA   MARNNCC100014       000000000000978D2   000764                                                                        
NREC135708034A07640629182029081767032102710232005  01000090435560110518180209043551950452106A3025551  51MS1                 5042000000000000D000000000000D00000000D840219490500000000000000D0000000025C               4NYY 000000100000            000000 
FPST135708034100001000051810832183190000000000000000000         190000000000000000000         BAM MARRACKECH PRINCIP REGION DE MA   MARNNA3025551       000000000000978D2   000764                                                                        
FREC135729050A0764062918214546165573605023044490   01000096920160110518180219692011950452106A3025551  00MC1           7834705242000000200000C000000000000D00000000D840219490500000000021074C0000000156C               4NYY 000000200000            000000 
FPST135729050100001000051810121852190000000000000000000         190000000000000000000         BAM MARRACKECH PRINCIP REGION DE MA   MARNNA3025551       000000016121826D2   000764                                                                        
NREC135756516A0051062918232554165258975940124275   0100000192456011051818023019245195045210601600718  51CI1                 5042000000000000D000000000000D00000000D840219490500000000000000D0000000025C               4NYY 000000050000            000000 
FPST135756516100001000051912405104170010291000002249193         190000000000000000000         BAM 050001             REGION DE CA   MARNN01600718       000000000000840D2   000051                                                                        
NREC135824532A0139063018081033165370031000086708   01000009218160110518181080921811950452106CC060243  14MC1                 5042000000000000D000000000000D00000000D840219490500000000000000D0000000025C               4NNX 000000010000            000000 
FPST135824532100001000051700017555190000000000000000000         190000000000000000000         BAM MARRAKECH          REGION DE MA   MARNNCC060243       000000000000840D2   000139                                                                        
NREC135834498A0844063018114106164744760166480345   0100002257916011051818111225791195045210601600653  55CI1                 5042000000000000D000000000000D00000000D840219490500000000000000D0000000025C               4NYY 000000050000            000000 
FPST135834498100001000051840838018190000000000000000000         190000000000000000000         BAM ESSAOUIRA PRINCIPA REGION DE MA   MARNN01600653       000000000000840D2   000844                                                                        
FREC135853510A0929063018141416165386390010604724   01000034625960110518181143462591950452106CC010349  00CI1           8088795242000000100000C000000000000D00000000D840219490500000000010537C0000000093C               4NYY 000000100000            000000 
FPST135853510100001000051000136505190000000600232687894         190000000000000000000         BAM MARRAKECH MEDINA N REGION DE MA   MARNNCC010349       000000014360036D2   000929                                                                        
NREC135863487A0764063018145936165333171061878589   3000003702176011051818114370217195045210611600019  05MC1                 5042000000000000D000000000000D00000000D840219490500000000000000D0000000000D               4NNX 000000000000            000000 
FPST135863487100001000051810090860190000000000000000000         190000000000000000000         BAM CASA 10 MARS NCR   REGION DE CA   MARNN11600019       000000000000978D2   000764                                                                        
FREC135877817A0764063018155635165253030008249187   01000039406660110518181153940661950452106CC010349  00MC1           Z757075242000000200000C000000000000D00000000D840219490500000000021074C0000000156C               4NYY 000000200000            000000 
FPST135877817100001000051810120992190000000000000000000         190000000000000000000         BAM MARRAKECH MEDINA N REGION DE MA   MARNNCC010349       000000016121826D2   000764                                                                        
NREC135879721A0780063018160341164258937905564633   01000039720460110518181163972041950452106CC060270  15VI1                 5042000000000000D000000000000D00000000D840219490500000000000000D0000000000D               4NNX 000000200000            000000 
FPST135879721100001000051840809995190000000000000000000         190000000000000000000         BAM FES BETHA NCR      REGION DE FE   MARNNCC060270       000000000000840D2   000780                                                                        
FREC135918283A0764063018182253165886020506764600   0100004709726011051818118470972195045210611600108  00MS1           6583955242000000030000C000000000000D00000000D840219490500000000003161C0000000049C               4NYY 000000030000            000000 
FPST135918283100001000051810011153190000000000000000000         190000000000000000000         BAM MARTIL  NCR        REGION DE TA   MARNN11600108       000000002735978D2   000764                                                                        
FREC136532332A0724062918200942165443687787343142   01000088636760110518180208863671950452106CC060270  00MS1           9284105242000000050000C000000000000D00000000D840219490500000000005268C0000000062C               4NYY 000000050000            000000 
FPST136532332100001000051840632997090000000000687019192         190000000000000000000         BAM FES BETHA NCR      REGION DE FE   MARNNCC060270       000000005268840D2   000724                                                                        
FREC136548793A0764062918211115165474284000277240   01000094112560110518180219411251950452106CC060243  00MC1           8216235242000000200000C000000000000D00000000D840219490500000000021074C0000000156C               4NYY 000000200000            000000 
FPST136548793100001000051810094882190000000000000000000         190000000000000000000         BAM MARRAKECH          REGION DE MA   MARNNCC060243       000000021030756D2   000764                                                                        
FREC136652439A07640630180741041767039795380049022  0100000834536011051818107083453195045210611600165  00MS1           7076235242000000200000C000000000000D00000000D840219490500000000021074C0000000156C               4NYY 000000200000            000000 
FPST136652439100001000051810834071190000000000000000000         190000000000000000000         BAM BERCHID HAY TISSIR REGION D'EL    MARNN11600165       000000018230978D2   000764                                                                        
NREC136654608A0764063018082649165364140109252745   0100000978476011051818108097847195045210601600749  51MC1                 5042000000000000D000000000000D00000000D840219490500000000000000D0000000025C               4NYY 000000200000            000000 
FPST136654608100001000051810110944190000000000000000000         190000000000000000000         BAM 050001             REGION DE MA   MARNN01600749       000000000000978D2   000764                                                                        
FREC136657914A0764063018094214165131628107042227   0100001331566011051818109133156195045210601600792  00MC1           4443945242000000200000C000000000000D00000000D840219490500000000021074C0000000156C               4NYY 000000200000            000000 
FPST136657914100001000051810126530190000000000000000000         190000000000000000000         BAM 050001             REGION DE CA   MARNN01600792       000000018230978D2   000764                                                                        
NREC136666875A0764063018122112165612582027637756   0100002634556011051818112263455195045210601600411  51MS1                 5042000000000000D000000000000D00000000D840219490500000000000000D0000000025C               4NYY 000000050000            000000 
FPST136666875100001000051810126530190000000000000000000         190000000000000000000         BAM BERKANE ELWIDADIA  REGION D'OUJ   MARNN01600411       000000000000978D2   000764                                                                        
NREC136669565A076406301812482219670684000004443347201000028783960110518181122878391950452106CC020035  62MS1                 5042000000000000D000000000000D00000000D840219490500000000000000D0000000025C               4NYY 000000200000            000000 
FPST136669565100001000051810810574190000000000000000000         190000000000000000000         BAM MARRAKECH MEDINNA  REGION DE MA   MARNNCC020035       000000000000978D2   000764                                                                        
FREC136670781A076406301812591019673400055337910092401000029686160110518181122968611950452106CC020035  00MS1           B387465242000000030000C000000000000D00000000D840219490500000000003161C0000000049C               4NYY 000000030000            000000 
FPST136670781100001000051810832743190000000000000000000         190000000000000000000         BAM MARRAKECH MEDINNA  REGION DE MA   MARNNCC020035       000000002735978D2   000764                                                                        
FREC136686553A0764063018143212165355220121593465   0100003567036011051818114356703195045210601600653  00MC1           AX990X5242000000100000C000000000000D00000000D840219490500000000010537C0000000093C               4NYY 000000100000            000000 
FPST136686553100001000051810177042190000000000000000000         190000000000000000000         BAM ESSAOUIRA PRINCIPA REGION DE MA   MARNN01600653       000000008061826D2   000764                                                                        
FREC136711126A0764063018161119165333171036924328   0100004003156011051818116400315195045210611600152  00MC1           6526375242000000200000C000000000000D00000000D840219490500000000021074C0000000156C               4NYY 000000200000            000000 
FPST136711126100001000051810090860190000000000000000000         190000000000000000000         BAM TARFAYA NCR-W7     REGION DE LA   MARNN11600152       000000018230978D2   000764                                                                        
FREC136720809A0764063018164638165539620003501677   0100004140576011051818116414057195045210611600023  00MC1           3940915242000000100000C000000000000D00000000D840219490500000000010537C0000000093C               4NYY 000000100000            000000 
FPST136720809100001000051810066250190000000000000000000         190000000000000000000         BAM TANGER  EL WAFA NC REGION DE TA   MARNN11600023       000000009115978D2   000764                                                                        
FREC136765125A0764063018193031165167445704133730   01000052069460110518181195206941950452106CC010349  00MC1           3578755242000000050000C000000000000D00000000D840219490500000000005268C0000000062C               4NYY 000000050000            000000 
FPST136765125100001000051810072367190000000000000000000         190000000000000000000         BAM MARRAKECH MEDINA N REGION DE MA   MARNNCC010349       000000004558978D2   000764                                                                        
FREC137466042A0764062918201444166761021445096508   01000089112560110518180208911251950452106CC060243  00MS1           2899115242000000050000C000000000000D00000000D840219490500000000005268C0000000062C               4NYY 000000050000            000000 
FPST137466042100001000051810037784100000000003240896545         190000000000000000000         BAM MARRAKECH          REGION DE MA   MARNNCC060243       000000033984191D2   000764                                                                        
FREC137593560A07640630181051411767030001321736051  0100001829416011051818110182941195045210611600007  00MS1           2221475242000000200000C000000000000D00000000D840219490500000000021074C0000000156C               4NYY 000000200000            000000 
FPST137593560100001000051810832468190000000000000000000         190000000000000000000         BAM AIT MELLOUL HAY AZ REGION D'AGA   MARNN11600007       000000018230978D2   000764                                                                        
FREC137623818A07640630181453071767030514132815005  0100003672756011051818114367275195045210601600324  00MS1           0828005242000000050000C000000000000D00000000D840219490500000000005268C0000000062C               4NYY 000000050000            000000 
FPST137623818100001000051810832882190000000000000000000         190000000000000000000         BAM OUJEH AAROUSS      REGION DE ME   MARNN01600324       000000004558978D2   000764                                                                        
FREC137644354A0764063018161350165379640059872569   0100004013726011051818116401372195045210601600741  00MC1           5680035242000000200000C000000000000D00000000D840219490500000000021074C0000000156C               4NYY 000000200000            000000 
FPST137644354100001000051810176166160005379640059872569         190000000000000000000         BAM 050001             REGION DE RA   MARNN01600741       000000018230978D2   000764                                                                        
FREC137699612A0764063018193827165333171024988087   0100005261406011051818119526140195045210601600480  00MC1           6504255242000000020000C000000000000D00000000D840219490500000000002107C0000000043C               4NYY 000000020000            000000 
FPST137699612100001000051810090860190000000000000000000         190000000000000000000         BAM RABAT EL MENZEH    REGION DE RA   MARNN01600480       000000001823978D2   000764                                                                        
FREC139359310A0382063018024317165320920014545934   01000004601360110518181020460131950452106CC060271  00CI1           7535745242000000200000C000000000000D00000000D840219490500000000021074C0000000156C               4NYY 000000200000            000000 
FPST139359310100001000051941038209190000000000000000000         190000000000000000000         BAM TERMINAL1 CASA NCR REGION DE CA   MARNNCC060271       000000021080840D2   000382                                                                        
FREC139391129A0764063018100812165351201399970019   01000014997160110518181101499711950452106A5001073  00MC1           0401525242000000200000C000000000000D00000000D840219490500000000021074C0000000156C               4NYY 000000200000            000000 
FPST139391129100001000051810156364190000000000000000000         190000000000000000000         BAM MERZOUGA NCR-W7    REGION DE ME   MARNNA5001073       000000018230978D2   000764                                                                        
FREC139395504A0764063018113501165344132508046021   0100002204426011051818111220442195045210601600587  00MC1           H512555242000000100000C000000000000D00000000D840219490500000000010537C0000000093C               4NYY 000000100000            000000 
FPST139395504100001000051810110889190000000000000000000         190000000000000000000         BAM SETTAT PAL1        REGION D'EL    MARNN01600587       000000009115978D2   000764                                                                        
FREC139406970A07640630181329061767034200282454037  0100003189596011051818113318959195045210601600683  00MS1           7825215242000000010000C000000000000D00000000D840219490500000000001054C0000000036C               4NYY 000000010000            000000 
FPST139406970100001000051810831786190000000000000000000         190000000000000000000         BAM FES PRINCIPAL 2 NE REGION DE FE   MARNN01600683       000000000912978D2   000764                                                                        
FREC139411244A07640630181354431767033800184007014  01000033506360110518181133350631950452106CC100014  00MS1           8746555242000000100000C000000000000D00000000D840219490500000000010537C0000000093C               4NYY 000000100000            000000 
FPST139411244100001000051810832549190000000000000000000         190000000000000000000         BAM 050001             REGION DE MA   MARNNCC100014       000000009115978D2   000764                                                                        
FREC139411245A0764063018135443165352983124107897   01000033506560110518181133350651950452106CC010349  00MC1           1068645242000000020000C000000000000D00000000D840219490500000000002107C0000000043C               4NYY 000000020000            000000 
FPST139411245100001000051810190715190000000000000000000         190000000000000000000         BAM MARRAKECH MEDINA N REGION DE MA   MARNNCC010349       000000001612826D2   000764                                                                        
FREC139474933A0764063018180507165355220156891115   01000045811360110518181184581131950452106CC020025  00MC1           A08VN55242000000100000C000000000000D00000000D840219490500000000010537C0000000093C               4NYY 000000100000            000000 
FPST139474933100001000051810177042190000000000000000000         190000000000000000000         BAM 050001             REGION DE MA   MARNNCC020025       000000008061826D2   000764                                                                        
FREC139476011A07640630181809041767030507709789009  01000046090260110518181184609021950452106CC020025  00MS1           6221145242000000200000C000000000000D00000000D840219490500000000021074C0000000156C               4NYY 000000200000            000000 
FPST139476011100001000051810832882190000000000000000000         190000000000000000000         BAM 050001             REGION DE MA   MARNNCC020025       000000018230978D2   000764                                                                        
FREC230015856A0764063018080214165387690263283103   01000008951460110518181080895141950452106CC010115  00MC1           7021605242000000030000C000000000000D00000000D840219490500000000003161C0000000049C               4NYY 000000030000            000000 
FPST230015856100001000051810160460190000000000000000000         190000000000000000000         BAM AGADIR FOUNTY      REGION D'AGA   MARNNCC010115       000000002418826D2   000764                                                                        
FREC230017035A0764063018082720165316723000485768   01000009802760110518181080980271950452106CC060271  00MC1           Z053175242000000050000C000000000000D00000000D840219490500000000005268C0000000062C               4NYY 000000050000            000000 
FPST230017035100001000051810178533190000000000000000000         190000000000000000000         BAM TERMINAL1 CASA NCR REGION DE CA   MARNNCC060271       000000004030826D2   000764                                                                        
FREC230019146A0606063018091507166017257000743488   01000011851060110518181091185101950452106CC060271  00CI1           0011705242000000100000C000000000000D00000000D840219490500000000010537C0000000093C               4NYY 000000100000            000000 
FPST230019146100001000051840186142190000000000000000000         190000000000000000000         BAM TERMINAL1 CASA NCR REGION DE CA   MARNNCC060271       000000013979124D2   000606                                                                        
FREC230020752A0910063018095223165163103005990449   01000013931960110518181091393191950452106CC060243  00CI1           7583795242000000200000C000000000000D00000000D840219490500000000021074C0000000156C               4NYY 000000200000            000000 
FPST230020752100001000051991015298190000000000000000000         190000000000000000000         BAM MARRAKECH          REGION DE MA   MARNNCC060243       000000028720036D2   000910                                                                        
FREC230026209A0139063018114045165368940000008732   0100002254776011051818111225477195045210601600718  00CI1           9022475242000000020000C000000000000D00000000D840219490500000000002107C0000000043C               4NNX 000000020000            000000 
FPST230026209100001000051700017513190000000000000000000         190000000000000000000         BAM 050001             REGION DE CA   MARNN01600718       000000020000504D2   000139                                                                        
FREC230049897A1677063018143626165310954063226320   0100003588566011051818114358856195045210601600210  00CI1           6578735242000000200000C000000000000D00000000D840219490500000000021074C0000000156C               4NYY 000000200000            000000 
FPST230049897100001000051968216774190000000000000000000         190000000000000000000         BAM TETOUAN SIDI TALHA REGION DE TA   MARNN01600210       000000079430682D2   001677                                                                        
FREC230063361A0764063018153252165292049651099270   0100003843676011051818115384367195045210601600096  00MC1           0595735242000000200000C000000000000D00000000D840219490500000000021074C0000000156C               4NYY 000000200000            000000 
FPST230063361100001000051810136180190000000000000000000         190000000000000000000         BAM OUARZAZATE         REGION DE MA   MARNN01600090       000000018230978D2   000764                                                                        
NREC230069596A0764063018155651165333171041105087   0100003941366011051818115394136195045210601600872  51MC1                 5042000000000000D000000000000D00000000D840219490500000000000000D0000000025C               4NYY 000000050000            000000 
FPST230069596100001000051810090860190000000000000000000         190000000000000000000         BAM 076930             REGION DE MA   MARNN01600872       000000000000978D2   000764                                                                        
FREC230095906A0139063018173143165578680214992356   0100004369836011051818117436983195045210611600115  00MC1           9817125242000000050000C000000000000D00000000D840219490500000000005268C0000000062C               4NYY 000000050000            000000 
FPST230095906100001000051700108972190000000000000000000         190000000000000000000         BAM  FES SIDI BRAHIMN  REGION DE FE   MARNN11600115       000000030857952D0   000139                                                                        
FREC230107454A0764063018181314165495260076601989   0100004638636011051818118463863195045210601600777  00MC1           9066885242000000050000C000000000000D00000000D840219490500000000005268C0000000062C               4NYY 000000050000            000000 
FPST230107454100001000051810106961190000000000000000000         190000000000000000000         BAM 050001             REGION D'OUJ   MARNN01600777       000000004558978D2   000764                                                                        
FREC230124045A0764063018191610165333171007909399   0100005105866011051818119510586195045210601600514  00MC1           6545425242000000050000C000000000000D00000000D840219490500000000005268C0000000062C               4NYY 000000050000            000000 
FPST230124045100001000051810090860190000000000000000000         190000000000000000000         BAM FES AL WIFAQ       REGION DE FE   MARNN01600514       000000004558978D2   000764                                                                        
FREC230892718A07640629182001551767030515424038008  0100008791096011051818020879109195045210601600825  00MS1           4844885242000000200000C000000000000D00000000D840219528962000000020989C0000000156C               4NYY 000000200000            000000 
FPST230892718100001000051810832882190000000000000000000         190000000000000000000         BAM 050001             REGION DE MA   MARNN01600825       000000018207978D2   000764                                                                        
NREC231242899A07640629182023161967735552597995799550100008989496011051818020898949195045210611600238  51MS1                 5042000000000000D000000000000D00000000D840219490500000000000000D0000000025C               4NYY 000000200000            000000 
FPST231242899100001000051810002515190000000000000000000         190000000000000000000         BAM MIR LEFT NCR       REGION D'AGA   MARNN11600238       000000000000978D2   000764                                                                        
FREC231306247A0764063018001928165355900052709434   01000002850860110518181000285081950452106CC060271  00MC1           NYPY5X5242000000050000C000000000000D00000000D840219490500000000005268C0000000062C               4NYY 000000050000            000000 
FPST231306247100001000051810178805160005355900052709434         190000000000000000000         BAM TERMINAL1 CASA NCR REGION DE CA   MARNNCC060271       000000004558978D2   000764                                                                        
FREC231325619A0764063018015104165545015649148144   0100000409326011051818101040932195045210611600108  00MC1           5522515242000000050000C000000000000D00000000D840219490500000000005268C0000000062C               4NYY 000000050000            000000 
FPST231325619100001000051810038738160008480009846643980         190000000000000000000         BAM MARTIL  NCR        REGION DE TA   MARNN11600108       000000047609752D2   000764                                                                        
FREC231367583A07640630181041101967370306563159110020100001744006011051818110174400195045210601600588  00MS1           I3G6475242000000200000C000000000000D00000000D840219490500000000021074C0000000156C               4NYY 000000200000            000000 
FPST231367583100001000051810830538190000000000000000000         190000000000000000000         BAM SETTAT PAL2        REGION D'EL    MARNN01600588       000000018230978D2   000764                                                                        
NREC231367714A0133063018104356165126849505008357   01000017665060110518181101766501950452106CC010349  55CI1                 5042000000000000D000000000000D00000000D840219490500000000000000D0000000025C               4NYY 000000040000            000000 
FPST231367714100001000051700046636190000000000000000000         190000000000000000000         BAM MARRAKECH MEDINA N REGION DE MA   MARNNCC010349       000000000000188D2   000133                                                                        
FREC231379000A0764063018130825165290970016480651   0100003039856011051818113303985195045210611600095  00MC1           7671725242000000020000C000000000000D00000000D840219490500000000002107C0000000043C               4NYY 000000020000            000000 
FPST231379000100001000051810153914190000000000000000000         190000000000000000000         BAM KENITRA ELKHABBAZA REGION DE RA   MARNN11600095       000000001823978D2   000764                                                                        
NREC231383094A005106301813362619500235995154149336901000032408560110518181133240851950452106CC060271  61MS1                 5042000000000000D000000000000D00000000D840219490500000000000000D0000000025C               4NYY 000000200000            000000 
FPST231383094100001000051124122013170012481000000175608         190000000000000000000         BAM TERMINAL1 CASA NCR REGION DE CA   MARNNCC060271       000000000000840D2   000051                                                                        
NREC231407858A0764063018153214165540620087410545   0100003840956011051818115384095195045210611600131  00MC14500019    9482105042000000000000D000000000000D00000000D840219490500000000000000D0000000025C               4NYY 000000200000            384137 
FPST231407858100001000051810066250190000000000000000000         190000000000000000000         BAM LAAYOUNE  PAL  NCR REGION DE LA   MARNN11600131       000000000000978D2   000764                                                                        
NREC231449506A0764063018180331165333171036353213   0100004570226011051818118457022195045210601600751  51MC1                 5042000000000000D000000000000D00000000D840219490500000000000000D0000000025C               4NYY 000000100000            000000 
FPST231449506100001000051810090860190000000000000000000         190000000000000000000         BAM 050001             REGION D'EL    MARNN01600751       000000000000978D2   000764                                                                        
FREC232058268A07640630180804381967340005496978022660100000903196011051818108090319195045210601600537  00MS1           B923685242000000020000C000000000000D00000000D840219490500000000002107C0000000043C               4NYY 000000020000            000000 
FPST232058268100001000051810832743190000000000000000000         190000000000000000000         BAM HAD BRADIA SANABIL REGION D'EL    MARNN01600537       000000001823978D2   000764                                                                        
FREC232063474A0764063018100203165333171020593980   0100001456136011051818110145613195045210601600587  00MC1           6574705242000000200000C000000000000D00000000D840219490500000000021074C0000000156C               4NYY 000000200000            000000 
FPST232063474100001000051810090860190000000000000000000         190000000000000000000         BAM SETTAT PAL1        REGION D'EL    MARNN01600587       000000018230978D2   000764                                                                        
FREC232064630A0764063018102756165137702421659406   0100001641056011051818110164105195045210611600238  00MC1           7676505242000000100000C000000000000D00000000D840219490500000000010537C0000000093C               4NYY 000000100000            000000 
FPST232064630100001000051810126530190000000000000000000         190000000000000000000         BAM MIR LEFT NCR       REGION D'AGA   MARNN11600238       000000009115978D2   000764                                                                        
FREC232072571A0764063018123148165332241005320765   01000027335960110518181122733591950452106CC060270  00MC1           B530275242000000200000C000000000000D00000000D840219490500000000021074C0000000156C               4NYY 000000200000            000000 
FPST232072571100001000051810122327100000000003001245660         190000000000000000000         BAM FES BETHA NCR      REGION DE FE   MARNNCC060270       000000018230978D2   000764                                                                        
FREC232087905A0764063018141602165333171003578206   0100003472826011051818114347282195045210601600544  00MC1           6544555242000000050000C000000000000D00000000D840219490500000000005268C0000000062C               4NYY 000000050000            000000 
FPST232087905100001000051810090860190000000000000000000         190000000000000000000         BAM MARRAKECH  ATLAS   REGION DE MA   MARNN01600544       000000004558978D2   000764                                                                        
FREC232119290A0764063018162415165133790123974268   0100004054026011051818116405402195045210611600222  00MC1           4225565242000000020000C000000000000D00000000D840219490500000000002107C0000000043C               4NYY 000000020000            000000 
FPST232119290100001000051810102431190000000000000000000         190000000000000000000         BAM SAFI PRINCIPAL NCR REGION D'EL    MARNN11600222       000000001823978D2   000764                                                                        
FREC232969379A0764062918220803165305580286683281   0100009845376011051818022984537195045210601600690  00MC1           8735015242000000050000C000000000000D00000000D840219490500000000005268C0000000062C               4NYY 000000050000            000000 
FPST232969379100001000051810133617190000000000000000000         190000000000000000000         BAM 050001             REGION DE MA   MARNN01600690       000000004558978D2   000764                                                                        
FREC232984457A0982062918230238164207670198246111   0100000108546011051818023010854195045210601600758  00MS1           0902185242000000050000C000000000000D00000000D840219490500000000005268C0000000062C               4NYY 000000050000            000000 
FPST232984457100001000051044000037150000000000955534979         190000000000000000000         BAM 050001             REGION D'AGA   MARNN01600758       000000005268840D2   000982                                                                        
FREC233692727A0764062918203718165286890524375258   01000091178960110518180209117891950452106CC010349  00MC1           4391325242000000040000C000000000000D00000000D840219490500000000004215C0000000055C               4NYY 000000040000            000000 
FPST233692727100001000051810047842190000000000000000000         190000000000000000000         BAM MARRAKECH MEDINA N REGION DE MA   MARNNCC010349       000000003224826D2   000764                                                                        
FREC233702337A07640629182112381767030003181961001  0100009422616011051818021942261195045210601600422  00MS1           5440935242000000100000C000000000000D00000000D840219490500000000010537C0000000093C               4NYY 000000100000            000000 
FPST233702337100001000051810832468190000000000000000000         190000000000000000000         BAM OUJDA ENNAHDA      REGION D'OUJ   MARNN01600422       000000009115978D2   000764                                                                        
FREC233825703A0764063018131234165355861908623643   0100003071286011051818113307128195045210601600384  00MC1           NU85HG5242000000200000C000000000000D00000000D840219490500000000021074C0000000156C               4NYY 000000200000            000000 
FPST233825703100001000051810178805160005355861908623643         190000000000000000000         BAM TIT MELLIL         REGION DE CA   MARNN01600384       000000018230978D2   000764                                                                        
NREC233844360A07640630181452321767030004327739012  0100003669756011051818114366975195045210601600316  51MS1                 5042000000000000D000000000000D00000000D840219490500000000000000D0000000025C               4NYY 000000200000            000000 
FPST233844360100001000051810832468190000000000000000000         190000000000000000000         BAM SALE HAY ESSALAM   REGION DE RA   MARNN01600316       000000000000978D2   000764                                                                        
FREC233902621A0929063018182923165384220006140627   01000047584160110518181184758411950452106CC010387  00CI1           5084855242000000200000C000000000000D00000000D840219490500000000021074C0000000156C               4NYY 000000200000            000000 
FPST233902621100001000051000150154190000000600215068435         190000000000000000000         BAM FES ELKARAOUINE    REGION DE FE   MARNNCC010387       000000021074840D2   000929                                                                        
NREC234124347A0780063018095015164726950000926403   0100001379316011051818109137931195045210601600352  15VI1                 5042000000000000D000000000000D00000000D840219490500000000000000D0000000000D               4NNX 000000200000            000000 
FPST234124347100001000051840809995190000000000000000000         190000000000000000000         BAM TASSOUMATE         REGION DE MA   MARNN01600352       000000000000840D2   000780                                                                        
FREC234125482A07640630181015591967370306888862990040100001552686011051818110155268195045210611600022  00MS1           I0Z8R25242000000040000C000000000000D00000000D840219490500000000004215C0000000055C               4NYY 000000040000            000000 
FPST234125482100001000051810830538190000000000000000000         190000000000000000000         BAM TANGER AL IRFANE N REGION DE TA   MARNN11600022       000000003646978D2   000764                                                                        
FREC234127550A0764063018110017165133819926835986   01000018993360110518181111899331950452106CC060243  00MC1           2531885242000000050000C000000000000D00000000D840219490500000000005268C0000000062C               4NYY 000000050000            000000 
FPST234127550100001000051810129003190000000000000000000         190000000000000000000         BAM MARRAKECH          REGION DE MA   MARNNCC060243       000000004558978D2   000764                                                                        
NREC234136670A076406301812572319670684000004443347201000029536360110518181122953631950452106CC020035  62MS1                 5042000000000000D000000000000D00000000D840219490500000000000000D0000000025C               4NYY 000000200000            000000 
FPST234136670100001000051810810574190000000000000000000         190000000000000000000         BAM MARRAKECH MEDINNA  REGION DE MA   MARNNCC020035       000000000000978D2   000764                                                                        
FREC234140740A0764063018132730165131628224922863   01000031782260110518181133178221950452106A3025551  00MC1           3373135242000000200000C000000000000D00000000D840219490500000000021074C0000000156C               4NYY 000000200000            000000 
FPST234140740100001000051810126530190000000000000000000         190000000000000000000         BAM MARRACKECH PRINCIP REGION DE MA   MARNNA3025551       000000018230978D2   000764                                                                        
FREC234162943A07640630181516251967322309061940160040100003777366011051818115377736195045210611600060  00MS1           69KIND5242000000100000C000000000000D00000000D840219490500000000010537C0000000093C               4NYY 000000100000            000000 
FPST234162943100001000051810898936190000000000000000000         190000000000000000000         BAM AGADIR SOUK LHAD   REGION D'AGA   MARNN11600060       000000009115978D2   000764                                                                        
FREC234208166A0910063018180227165163610011396494   01000045628860110518181184562881950452106CC060270  00CI1           9303475242000000200000C000000000000D00000000D840219490500000000021074C0000000156C               4NYY 000000200000            000000 
FPST234208166100001000051991015298190000000000000000000         190000000000000000000         BAM FES BETHA NCR      REGION DE FE   MARNNCC060270       000000028720036D2   000910                                                                        
FREC235034456A0844063018082023165312620004448053   01000009544460110518181080954441950452106CC010349  00MS1           1424045242000000200000C000000000000D00000000D840219490500000000021074C0000000156C               4NYY 000000200000            000000 
FPST235034456100001000051840838018190000000000000000000         190000000000000000000         BAM MARRAKECH MEDINA N REGION DE MA   MARNNCC010349       000000021074840D2   000844                                                                        
FREC235037980A0724063018094036165443687787343142   01000013224160110518181091322411950452106CC060270  00MS1           0180765242000000050000C000000000000D00000000D840219490500000000005268C0000000062C               4NYY 000000050000            000000 
FPST235037980100001000051840632997090000000000687019192         190000000000000000000         BAM FES BETHA NCR      REGION DE FE   MARNNCC060270       000000005268840D2   000724                                                                        
FREC235041960A1562063018110710165326351019230351   0100001957616011051818111195761195045210601600728  00CI1           3669745242000000050000C000000000000D00000000D840219490500000000005268C0000000062C               4NYY 000000050000            000000 
FPST235041960100001000051000149615160000090881036394001         190000000000000000000         BAM 050001             REGION DE CA   MARNN01600728       000000031782952D0   001562                                                                        
FREC235042405A1492063018111518164029445189112002   0100002029026011051818111202902195045210601600480  00MS1           1234565242000000100000C000000000000D00000000D840219490500000000010537C0000000093C               4NYY 000000100000            000000 
FPST235042405100001000051840149244110000000004269518200         190000000000000000000         BAM RABAT EL MENZEH    REGION DE RA   MARNN01600480       000000010537840D2   001492                                                                        
